{
  "contractName": "VotingContract",
  "abi": [
    {
      "inputs": [],
      "stateMutability": "nonpayable",
      "type": "constructor"
    },
    {
      "anonymous": false,
      "inputs": [
        {
          "indexed": true,
          "internalType": "string",
          "name": "name",
          "type": "string"
        },
        {
          "indexed": true,
          "internalType": "string[]",
          "name": "options",
          "type": "string[]"
        },
        {
          "indexed": true,
          "internalType": "uint256",
          "name": "votingId",
          "type": "uint256"
        }
      ],
      "name": "BeginVoteCampaign",
      "type": "event"
    },
    {
      "anonymous": false,
      "inputs": [
        {
          "indexed": true,
          "internalType": "uint256",
          "name": "votingId",
          "type": "uint256"
        },
        {
          "indexed": true,
          "internalType": "bool",
          "name": "status",
          "type": "bool"
        }
      ],
      "name": "EndVoteCampaign",
      "type": "event"
    },
    {
      "anonymous": false,
      "inputs": [
        {
          "indexed": true,
          "internalType": "address",
          "name": "previousOwner",
          "type": "address"
        },
        {
          "indexed": true,
          "internalType": "address",
          "name": "newOwner",
          "type": "address"
        }
      ],
      "name": "OwnershipTransferred",
      "type": "event"
    },
    {
      "anonymous": false,
      "inputs": [
        {
          "indexed": true,
          "internalType": "uint256",
          "name": "votingId",
          "type": "uint256"
        },
        {
          "indexed": false,
          "internalType": "uint256[]",
          "name": "voteResults",
          "type": "uint256[]"
        },
        {
          "indexed": true,
          "internalType": "uint256",
          "name": "batchId",
          "type": "uint256"
        }
      ],
      "name": "UploadBatch",
      "type": "event"
    },
    {
      "inputs": [],
      "name": "nextBatchId",
      "outputs": [
        {
          "internalType": "uint256",
          "name": "",
          "type": "uint256"
        }
      ],
      "stateMutability": "view",
      "type": "function",
      "constant": true
    },
    {
      "inputs": [],
      "name": "nextVotingId",
      "outputs": [
        {
          "internalType": "uint256",
          "name": "",
          "type": "uint256"
        }
      ],
      "stateMutability": "view",
      "type": "function",
      "constant": true
    },
    {
      "inputs": [],
      "name": "owner",
      "outputs": [
        {
          "internalType": "address",
          "name": "",
          "type": "address"
        }
      ],
      "stateMutability": "view",
      "type": "function",
      "constant": true
    },
    {
      "inputs": [],
      "name": "renounceOwnership",
      "outputs": [],
      "stateMutability": "nonpayable",
      "type": "function"
    },
    {
      "inputs": [
        {
          "internalType": "address",
          "name": "newOwner",
          "type": "address"
        }
      ],
      "name": "transferOwnership",
      "outputs": [],
      "stateMutability": "nonpayable",
      "type": "function"
    },
    {
      "inputs": [
        {
          "internalType": "address",
          "name": "",
          "type": "address"
        }
      ],
      "name": "uploaders",
      "outputs": [
        {
          "internalType": "bool",
          "name": "",
          "type": "bool"
        }
      ],
      "stateMutability": "view",
      "type": "function",
      "constant": true
    },
    {
      "inputs": [
        {
          "internalType": "uint256",
          "name": "",
          "type": "uint256"
        },
        {
          "internalType": "bytes32",
          "name": "",
          "type": "bytes32"
        }
      ],
      "name": "voteBatchHashes",
      "outputs": [
        {
          "internalType": "bool",
          "name": "",
          "type": "bool"
        }
      ],
      "stateMutability": "view",
      "type": "function",
      "constant": true
    },
    {
      "inputs": [
        {
          "internalType": "uint256",
          "name": "",
          "type": "uint256"
        }
      ],
      "name": "voteCampaigns",
      "outputs": [
        {
          "internalType": "string",
          "name": "name",
          "type": "string"
        },
        {
          "internalType": "bool",
          "name": "isActive",
          "type": "bool"
        }
      ],
      "stateMutability": "view",
      "type": "function",
      "constant": true
    },
    {
      "inputs": [
        {
          "internalType": "address",
          "name": "_newUploader",
          "type": "address"
        },
        {
          "internalType": "bool",
          "name": "_isAllowed",
          "type": "bool"
        }
      ],
      "name": "setUploader",
      "outputs": [],
      "stateMutability": "nonpayable",
      "type": "function"
    },
    {
      "inputs": [
        {
          "internalType": "string",
          "name": "name",
          "type": "string"
        },
        {
          "internalType": "string[]",
          "name": "options",
          "type": "string[]"
        }
      ],
      "name": "beginVoteCampaign",
      "outputs": [
        {
          "internalType": "uint256",
          "name": "",
          "type": "uint256"
        }
      ],
      "stateMutability": "nonpayable",
      "type": "function"
    },
    {
      "inputs": [
        {
          "internalType": "uint256",
          "name": "votingId",
          "type": "uint256"
        }
      ],
      "name": "endVoteCampaign",
      "outputs": [],
      "stateMutability": "nonpayable",
      "type": "function"
    },
    {
      "inputs": [
        {
          "internalType": "uint256",
          "name": "votingId",
          "type": "uint256"
        },
        {
          "internalType": "uint256[]",
          "name": "voteResults",
          "type": "uint256[]"
        }
      ],
      "name": "uploadBatch",
      "outputs": [
        {
          "internalType": "uint256",
          "name": "",
          "type": "uint256"
        }
      ],
      "stateMutability": "nonpayable",
      "type": "function"
    },
    {
      "inputs": [
        {
          "internalType": "uint256",
          "name": "votingId",
          "type": "uint256"
        }
      ],
      "name": "getCampaignResults",
      "outputs": [
        {
          "internalType": "string",
          "name": "",
          "type": "string"
        },
        {
          "internalType": "string[]",
          "name": "",
          "type": "string[]"
        },
        {
          "internalType": "uint256[]",
          "name": "",
          "type": "uint256[]"
        },
        {
          "internalType": "bool",
          "name": "",
          "type": "bool"
        }
      ],
      "stateMutability": "view",
      "type": "function",
      "constant": true
    }
  ],
  "bytecode": "0x608060405234801561001057600080fd5b5061002d61002261003260201b60201c565b61003a60201b60201c565b6100fe565b600033905090565b60008060009054906101000a900473ffffffffffffffffffffffffffffffffffffffff169050816000806101000a81548173ffffffffffffffffffffffffffffffffffffffff021916908373ffffffffffffffffffffffffffffffffffffffff1602179055508173ffffffffffffffffffffffffffffffffffffffff168173ffffffffffffffffffffffffffffffffffffffff167f8be0079c531659141344cd1fd0a4f28419497f9722a3daafe3b4186f6b6457e060405160405180910390a35050565b61217b806200010e6000396000f3fe608060405234801561001057600080fd5b50600436106100cf5760003560e01c806379406e641161008c578063cd9fbcb011610066578063cd9fbcb014610200578063decf6b8914610233578063edce4f6e14610263578063f2fde38b14610294576100cf565b806379406e64146101945780638462a7f8146101c45780638da5cb5b146101e2576100cf565b80631261d8f5146100d457806313f05580146100f257806319598a681461012257806363968e191461013e578063715018a61461016e5780637325124c14610178575b600080fd5b6100dc6102b0565b6040516100e991906110a1565b60405180910390f35b61010c60048036038101906101079190611132565b6102b6565b604051610119919061118d565b60405180910390f35b61013c60048036038101906101379190611232565b6102e5565b005b61015860048036038101906101539190611272565b6103b7565b604051610165919061118d565b60405180910390f35b6101766103d7565b005b610192600480360381019061018d919061129f565b6103eb565b005b6101ae60048036038101906101a99190611387565b6104e1565b6040516101bb91906110a1565b60405180910390f35b6101cc6106d1565b6040516101d991906110a1565b60405180910390f35b6101ea6106d7565b6040516101f79190611417565b60405180910390f35b61021a6004803603810190610215919061129f565b610700565b60405161022a9493929190611695565b60405180910390f35b61024d60048036038101906102489190611745565b61092d565b60405161025a91906110a1565b60405180910390f35b61027d6004803603810190610278919061129f565b610c4e565b60405161028b9291906117a5565b60405180910390f35b6102ae60048036038101906102a99190611272565b610d07565b005b60015481565b60056020528160005260406000206020528060005260406000206000915091509054906101000a900460ff1681565b6102ed610d8a565b600073ffffffffffffffffffffffffffffffffffffffff168273ffffffffffffffffffffffffffffffffffffffff160361035c576040517f08c379a000000000000000000000000000000000000000000000000000000000815260040161035390611821565b60405180910390fd5b80600460008473ffffffffffffffffffffffffffffffffffffffff1673ffffffffffffffffffffffffffffffffffffffff16815260200190815260200160002060006101000a81548160ff0219169083151502179055505050565b60046020528060005260406000206000915054906101000a900460ff1681565b6103df610d8a565b6103e96000610e08565b565b6103f3610d8a565b6003600082815260200190815260200160002060030160009054906101000a900460ff16610456576040517f08c379a000000000000000000000000000000000000000000000000000000000815260040161044d9061188d565b60405180910390fd5b60006003600083815260200190815260200160002060030160006101000a81548160ff02191690831515021790555060006003600083815260200190815260200160002060030160009054906101000a900460ff169050801515827f7f1fc36733e7519e6832a9cb02ded6a8d5332c5524d91112778ed2dded9f234660405160405180910390a35050565b60006104eb610d8a565b60008383905067ffffffffffffffff81111561050a576105096118ad565b5b6040519080825280602002602001820160405280156105385781602001602082028036833780820191505090505b509050604051806080016040528087878080601f016020809104026020016040519081016040528093929190818152602001838380828437600081840152601f19601f82011690508083019250505050505050815260200185859061059d9190611a90565b81526020018281526020016001151581525060036000600154815260200190815260200160002060008201518160000190805190602001906105e0929190610ed4565b5060208201518160010190805190602001906105fd929190610f5a565b50604082015181600201908051906020019061061a929190610fba565b5060608201518160030160006101000a81548160ff0219169083151502179055509050506001600081548092919061065190611ad4565b91905055506000600180546106669190611b1c565b9050808585604051610679929190611c91565b60405180910390208888604051610691929190611cda565b60405180910390207ed626b35d1cbb634a9a83e25757ee975fb3ed91ee7228cd1b7132b0774c776e60405160405180910390a48092505050949350505050565b60025481565b60008060009054906101000a900473ffffffffffffffffffffffffffffffffffffffff16905090565b606080606060006003600086815260200190815260200160002060000160036000878152602001908152602001600020600101600360008881526020019081526020016000206002016003600089815260200190815260200160002060030160009054906101000a900460ff1683805461077990611d22565b80601f01602080910402602001604051908101604052809291908181526020018280546107a590611d22565b80156107f25780601f106107c7576101008083540402835291602001916107f2565b820191906000526020600020905b8154815290600101906020018083116107d557829003601f168201915b5050505050935082805480602002602001604051908101604052809291908181526020016000905b828210156108c657838290600052602060002001805461083990611d22565b80601f016020809104026020016040519081016040528092919081815260200182805461086590611d22565b80156108b25780601f10610887576101008083540402835291602001916108b2565b820191906000526020600020905b81548152906001019060200180831161089557829003601f168201915b50505050508152602001906001019061081a565b5050505092508180548060200260200160405190810160405280929190818152602001828054801561091757602002820191906000526020600020905b815481526020019060010190808311610903575b5050505050915093509350935093509193509193565b6000600460003373ffffffffffffffffffffffffffffffffffffffff1673ffffffffffffffffffffffffffffffffffffffff16815260200190815260200160002060009054906101000a900460ff166109bb576040517f08c379a00000000000000000000000000000000000000000000000000000000081526004016109b290611dc5565b60405180910390fd5b6003600085815260200190815260200160002060030160009054906101000a900460ff16610a1e576040517f08c379a0000000000000000000000000000000000000000000000000000000008152600401610a159061188d565b60405180910390fd5b60036000858152602001908152602001600020600101805490508383905014610a7c576040517f08c379a0000000000000000000000000000000000000000000000000000000008152600401610a7390611e31565b60405180910390fd5b60008383604051602001610a91929190611ebd565b60405160208183030381529060405280519060200120905060056000868152602001908152602001600020600082815260200190815260200160002060009054906101000a900460ff1615610b1b576040517f08c379a0000000000000000000000000000000000000000000000000000000008152600401610b1290611f22565b60405180910390fd5b600160056000878152602001908152602001600020600083815260200190815260200160002060006101000a81548160ff02191690831515021790555060005b84849050811015610bdb57848482818110610b7957610b78611f42565b5b90506020020135600360008881526020019081526020016000206002018281548110610ba857610ba7611f42565b5b906000526020600020016000828254610bc19190611f71565b925050819055508080610bd390611ad4565b915050610b5b565b5060026000815480929190610bef90611ad4565b919050555060006001600254610c059190611b1c565b905080867fc1e9bf14513074733db30df9fcdca514a317a3b80eb740881e9051d33dc0add28787604051610c3a929190612023565b60405180910390a380925050509392505050565b6003602052806000526040600020600091509050806000018054610c7190611d22565b80601f0160208091040260200160405190810160405280929190818152602001828054610c9d90611d22565b8015610cea5780601f10610cbf57610100808354040283529160200191610cea565b820191906000526020600020905b815481529060010190602001808311610ccd57829003601f168201915b5050505050908060030160009054906101000a900460ff16905082565b610d0f610d8a565b600073ffffffffffffffffffffffffffffffffffffffff168173ffffffffffffffffffffffffffffffffffffffff1603610d7e576040517f08c379a0000000000000000000000000000000000000000000000000000000008152600401610d75906120b9565b60405180910390fd5b610d8781610e08565b50565b610d92610ecc565b73ffffffffffffffffffffffffffffffffffffffff16610db06106d7565b73ffffffffffffffffffffffffffffffffffffffff1614610e06576040517f08c379a0000000000000000000000000000000000000000000000000000000008152600401610dfd90612125565b60405180910390fd5b565b60008060009054906101000a900473ffffffffffffffffffffffffffffffffffffffff169050816000806101000a81548173ffffffffffffffffffffffffffffffffffffffff021916908373ffffffffffffffffffffffffffffffffffffffff1602179055508173ffffffffffffffffffffffffffffffffffffffff168173ffffffffffffffffffffffffffffffffffffffff167f8be0079c531659141344cd1fd0a4f28419497f9722a3daafe3b4186f6b6457e060405160405180910390a35050565b600033905090565b828054610ee090611d22565b90600052602060002090601f016020900481019282610f025760008555610f49565b82601f10610f1b57805160ff1916838001178555610f49565b82800160010185558215610f49579182015b82811115610f48578251825591602001919060010190610f2d565b5b509050610f569190611007565b5090565b828054828255906000526020600020908101928215610fa9579160200282015b82811115610fa8578251829080519060200190610f98929190610ed4565b5091602001919060010190610f7a565b5b509050610fb69190611024565b5090565b828054828255906000526020600020908101928215610ff6579160200282015b82811115610ff5578251825591602001919060010190610fda565b5b5090506110039190611007565b5090565b5b80821115611020576000816000905550600101611008565b5090565b5b80821115611044576000818161103b9190611048565b50600101611025565b5090565b50805461105490611d22565b6000825580601f106110665750611085565b601f0160209004906000526020600020908101906110849190611007565b5b50565b6000819050919050565b61109b81611088565b82525050565b60006020820190506110b66000830184611092565b92915050565b6000604051905090565b600080fd5b600080fd5b6110d981611088565b81146110e457600080fd5b50565b6000813590506110f6816110d0565b92915050565b6000819050919050565b61110f816110fc565b811461111a57600080fd5b50565b60008135905061112c81611106565b92915050565b60008060408385031215611149576111486110c6565b5b6000611157858286016110e7565b92505060206111688582860161111d565b9150509250929050565b60008115159050919050565b61118781611172565b82525050565b60006020820190506111a2600083018461117e565b92915050565b600073ffffffffffffffffffffffffffffffffffffffff82169050919050565b60006111d3826111a8565b9050919050565b6111e3816111c8565b81146111ee57600080fd5b50565b600081359050611200816111da565b92915050565b61120f81611172565b811461121a57600080fd5b50565b60008135905061122c81611206565b92915050565b60008060408385031215611249576112486110c6565b5b6000611257858286016111f1565b92505060206112688582860161121d565b9150509250929050565b600060208284031215611288576112876110c6565b5b6000611296848285016111f1565b91505092915050565b6000602082840312156112b5576112b46110c6565b5b60006112c3848285016110e7565b91505092915050565b600080fd5b600080fd5b600080fd5b60008083601f8401126112f1576112f06112cc565b5b8235905067ffffffffffffffff81111561130e5761130d6112d1565b5b60208301915083600182028301111561132a576113296112d6565b5b9250929050565b60008083601f840112611347576113466112cc565b5b8235905067ffffffffffffffff811115611364576113636112d1565b5b6020830191508360208202830111156113805761137f6112d6565b5b9250929050565b600080600080604085870312156113a1576113a06110c6565b5b600085013567ffffffffffffffff8111156113bf576113be6110cb565b5b6113cb878288016112db565b9450945050602085013567ffffffffffffffff8111156113ee576113ed6110cb565b5b6113fa87828801611331565b925092505092959194509250565b611411816111c8565b82525050565b600060208201905061142c6000830184611408565b92915050565b600081519050919050565b600082825260208201905092915050565b60005b8381101561146c578082015181840152602081019050611451565b8381111561147b576000848401525b50505050565b6000601f19601f8301169050919050565b600061149d82611432565b6114a7818561143d565b93506114b781856020860161144e565b6114c081611481565b840191505092915050565b600081519050919050565b600082825260208201905092915050565b6000819050602082019050919050565b600082825260208201905092915050565b600061151382611432565b61151d81856114f7565b935061152d81856020860161144e565b61153681611481565b840191505092915050565b600061154d8383611508565b905092915050565b6000602082019050919050565b600061156d826114cb565b61157781856114d6565b935083602082028501611589856114e7565b8060005b858110156115c557848403895281516115a68582611541565b94506115b183611555565b925060208a0199505060018101905061158d565b50829750879550505050505092915050565b600081519050919050565b600082825260208201905092915050565b6000819050602082019050919050565b61160c81611088565b82525050565b600061161e8383611603565b60208301905092915050565b6000602082019050919050565b6000611642826115d7565b61164c81856115e2565b9350611657836115f3565b8060005b8381101561168857815161166f8882611612565b975061167a8361162a565b92505060018101905061165b565b5085935050505092915050565b600060808201905081810360008301526116af8187611492565b905081810360208301526116c38186611562565b905081810360408301526116d78185611637565b90506116e6606083018461117e565b95945050505050565b60008083601f840112611705576117046112cc565b5b8235905067ffffffffffffffff811115611722576117216112d1565b5b60208301915083602082028301111561173e5761173d6112d6565b5b9250929050565b60008060006040848603121561175e5761175d6110c6565b5b600061176c868287016110e7565b935050602084013567ffffffffffffffff81111561178d5761178c6110cb565b5b611799868287016116ef565b92509250509250925092565b600060408201905081810360008301526117bf8185611492565b90506117ce602083018461117e565b9392505050565b7f5a65726f20616464726573730000000000000000000000000000000000000000600082015250565b600061180b600c8361143d565b9150611816826117d5565b602082019050919050565b6000602082019050818103600083015261183a816117fe565b9050919050565b7f43616d706169676e206973206e6f742061637469766500000000000000000000600082015250565b600061187760168361143d565b915061188282611841565b602082019050919050565b600060208201905081810360008301526118a68161186a565b9050919050565b7f4e487b7100000000000000000000000000000000000000000000000000000000600052604160045260246000fd5b6118e582611481565b810181811067ffffffffffffffff82111715611904576119036118ad565b5b80604052505050565b60006119176110bc565b905061192382826118dc565b919050565b600067ffffffffffffffff821115611943576119426118ad565b5b602082029050602081019050919050565b600080fd5b600067ffffffffffffffff821115611974576119736118ad565b5b61197d82611481565b9050602081019050919050565b82818337600083830152505050565b60006119ac6119a784611959565b61190d565b9050828152602081018484840111156119c8576119c7611954565b5b6119d384828561198a565b509392505050565b600082601f8301126119f0576119ef6112cc565b5b8135611a00848260208601611999565b91505092915050565b6000611a1c611a1784611928565b61190d565b90508083825260208201905060208402830185811115611a3f57611a3e6112d6565b5b835b81811015611a8657803567ffffffffffffffff811115611a6457611a636112cc565b5b808601611a7189826119db565b85526020850194505050602081019050611a41565b5050509392505050565b6000611a9d368484611a09565b905092915050565b7f4e487b7100000000000000000000000000000000000000000000000000000000600052601160045260246000fd5b6000611adf82611088565b91507fffffffffffffffffffffffffffffffffffffffffffffffffffffffffffffffff8203611b1157611b10611aa5565b5b600182019050919050565b6000611b2782611088565b9150611b3283611088565b925082821015611b4557611b44611aa5565b5b828203905092915050565b600081905092915050565b6000819050919050565b600081905092915050565b6000611b7c8385611b65565b9350611b8983858461198a565b611b9283611481565b840190509392505050565b6000611baa848484611b70565b90509392505050565b600080fd5b600080fd5b600080fd5b60008083356001602003843603038112611bdf57611bde611bbd565b5b83810192508235915060208301925067ffffffffffffffff821115611c0757611c06611bb3565b5b600182023603841315611c1d57611c1c611bb8565b5b509250929050565b6000602082019050919050565b6000611c3e8385611b50565b9350611c4982611b5b565b8060005b85811015611c8457611c5f8284611bc2565b611c6a898284611b9d565b9850611c7584611c25565b93505050600181019050611c4d565b5085925050509392505050565b6000611c9e828486611c32565b91508190509392505050565b600081905092915050565b6000611cc18385611caa565b9350611cce83858461198a565b82840190509392505050565b6000611ce7828486611cb5565b91508190509392505050565b7f4e487b7100000000000000000000000000000000000000000000000000000000600052602260045260246000fd5b60006002820490506001821680611d3a57607f821691505b602082108103611d4d57611d4c611cf3565b5b50919050565b7f43616c6c6572206973206e6f7420617574686f72697a656420746f2075706c6f60008201527f6164000000000000000000000000000000000000000000000000000000000000602082015250565b6000611daf60228361143d565b9150611dba82611d53565b604082019050919050565b60006020820190508181036000830152611dde81611da2565b9050919050565b7f496e76616c696420726573756c7473206c656e67746800000000000000000000600082015250565b6000611e1b60168361143d565b9150611e2682611de5565b602082019050919050565b60006020820190508181036000830152611e4a81611e0e565b9050919050565b600081905092915050565b600080fd5b6000611e6d8385611e51565b93507f07ffffffffffffffffffffffffffffffffffffffffffffffffffffffffffffff831115611ea057611e9f611e5c565b5b602083029250611eb183858461198a565b82840190509392505050565b6000611eca828486611e61565b91508190509392505050565b7f4475706c696361746520726573756c7473206465746563746564000000000000600082015250565b6000611f0c601a8361143d565b9150611f1782611ed6565b602082019050919050565b60006020820190508181036000830152611f3b81611eff565b9050919050565b7f4e487b7100000000000000000000000000000000000000000000000000000000600052603260045260246000fd5b6000611f7c82611088565b9150611f8783611088565b9250827fffffffffffffffffffffffffffffffffffffffffffffffffffffffffffffffff03821115611fbc57611fbb611aa5565b5b828201905092915050565b6000611fd383856115e2565b93507f07ffffffffffffffffffffffffffffffffffffffffffffffffffffffffffffff83111561200657612005611e5c565b5b60208302925061201783858461198a565b82840190509392505050565b6000602082019050818103600083015261203e818486611fc7565b90509392505050565b7f4f776e61626c653a206e6577206f776e657220697320746865207a65726f206160008201527f6464726573730000000000000000000000000000000000000000000000000000602082015250565b60006120a360268361143d565b91506120ae82612047565b604082019050919050565b600060208201905081810360008301526120d281612096565b9050919050565b7f4f776e61626c653a2063616c6c6572206973206e6f7420746865206f776e6572600082015250565b600061210f60208361143d565b915061211a826120d9565b602082019050919050565b6000602082019050818103600083015261213e81612102565b905091905056fea2646970667358221220bb65dfebc1e2c07286b14f85dd2cea029fe5a4db2621cc88f4dbb14d0cd8b5d864736f6c634300080d0033",
  "immutableReferences": {},
  "source": "// SPDX-License-Identifier: MIT\npragma solidity ^0.8.13;\n\nimport {Ownable} from \"@openzeppelin/contracts/access/Ownable.sol\";\n\ncontract VotingContract is Ownable {\n    // increase the voting id when the owner begin the vote campaign\n    uint256 public nextVotingId;\n\n    // increase the batch id when the uploader update the batch\n    uint256 public nextBatchId;\n\n    // struct to store the vote campaign info\n    struct VoteCampaign {\n        string name;\n        string[] options;\n        uint256[] results;\n        bool isActive;\n    }\n\n    // from voting ID to storing details of each voting campaign\n    mapping(uint256 => VoteCampaign) public voteCampaigns;\n\n    // track whether an address is authorized to upload batch results\n    mapping(address => bool) public uploaders;\n\n    // preventing duplicate batch uploads for each campaign\n    mapping(uint256 => mapping(bytes32 => bool)) public voteBatchHashes;\n\n    // event to notify the begin vote campaign\n    event BeginVoteCampaign(\n        string indexed name,\n        string[] indexed options,\n        uint256 indexed votingId\n    );\n\n    // event to notify the end vote campaign\n    event EndVoteCampaign(uint256 indexed votingId, bool indexed status);\n\n    // event to notify the upload batch\n    event UploadBatch(\n        uint256 indexed votingId,\n        uint256[] voteResults,\n        uint256 indexed batchId\n    );\n\n    // to check if the caller is an authorized uploader\n    modifier onlyUploader() {\n        require(uploaders[msg.sender], \"Caller is not authorized to upload\");\n        _;\n    }\n\n    constructor() {}\n\n    // function for owner to set uploader\n    function setUploader(\n        address _newUploader,\n        bool _isAllowed\n    ) external onlyOwner {\n        require(_newUploader != address(0), \"Zero address\");\n        uploaders[_newUploader] = _isAllowed;\n    }\n\n    // function to begin vote campaign\n    function beginVoteCampaign(\n        string calldata name,\n        string[] calldata options\n    ) external onlyOwner returns (uint256) {\n        uint256[] memory initResults = new uint256[](options.length);\n        voteCampaigns[nextVotingId] = VoteCampaign({\n            name: name,\n            options: options,\n            results: initResults,\n            isActive: true\n        });\n\n        nextVotingId++;\n        uint256 votingId = nextVotingId - 1;\n\n        emit BeginVoteCampaign(name, options, votingId);\n\n        return votingId;\n    }\n\n    // function to end vote campaign\n    function endVoteCampaign(uint256 votingId) external onlyOwner {\n        require(voteCampaigns[votingId].isActive, \"Campaign is not active\");\n        voteCampaigns[votingId].isActive = false;\n\n        bool status = voteCampaigns[votingId].isActive;\n\n        emit EndVoteCampaign(votingId, status);\n    }\n\n    // function to upload batch\n    function uploadBatch(\n        uint256 votingId,\n        uint256[] calldata voteResults\n    ) external onlyUploader returns (uint256) {\n        require(voteCampaigns[votingId].isActive, \"Campaign is not active\");\n        require(\n            voteResults.length == voteCampaigns[votingId].options.length,\n            \"Invalid results length\"\n        );\n\n        bytes32 resultsHash = keccak256(abi.encodePacked(voteResults));\n        require(\n            !voteBatchHashes[votingId][resultsHash],\n            \"Duplicate results detected\"\n        );\n        voteBatchHashes[votingId][resultsHash] = true;\n\n        for (uint i = 0; i < voteResults.length; i++) {\n            voteCampaigns[votingId].results[i] += voteResults[i];\n        }\n\n        nextBatchId++;\n\n        uint256 batchId = nextBatchId - 1;\n\n        emit UploadBatch(votingId, voteResults, batchId);\n\n        return batchId;\n    }\n\n    // function to get campaign results\n    function getCampaignResults(\n        uint256 votingId\n    )\n        public\n        view\n        returns (string memory, string[] memory, uint256[] memory, bool)\n    {\n        return (\n            voteCampaigns[votingId].name,\n            voteCampaigns[votingId].options,\n            voteCampaigns[votingId].results,\n            voteCampaigns[votingId].isActive\n        );\n    }\n}\n",
  "sourcePath": "E:\\Projects\\real-estate-contract\\contracts\\VotingContract.sol",
  "compiler": {
    "name": "solc",
    "version": "0.8.13+commit.abaa5c0e.Emscripten.clang"
  },
  "schemaVersion": "3.4.16",
  "updatedAt": "2024-05-08T16:31:29.620Z",
  "networkType": "ethereum",
  "devdoc": {
    "kind": "dev",
    "methods": {
      "owner()": {
        "details": "Returns the address of the current owner."
      },
      "renounceOwnership()": {
        "details": "Leaves the contract without owner. It will not be possible to call `onlyOwner` functions. Can only be called by the current owner. NOTE: Renouncing ownership will leave the contract without an owner, thereby disabling any functionality that is only available to the owner."
      },
      "transferOwnership(address)": {
        "details": "Transfers ownership of the contract to a new account (`newOwner`). Can only be called by the current owner."
      }
    },
    "version": 1
  },
  "userdoc": {
    "kind": "user",
    "methods": {},
    "version": 1
  }
}